:100000000C942A000C9430020C9447000C94470086
:100010000C9447000C9447000C9447000C94470044
:100020000C9447000C9447000C9447000C94470034
:100030000C9447000C9447000C9447000C94470024
:100040000C9447000C9447000C9447000C94470014
:100050000C94470011241FBECFE5D8E0DEBFCDBF12
:1000600010E0A0E6B0E0E0EEF7E002C005900D92EF
:10007000A23BB107D9F720E0A2EBB0E001C01D928E
:10008000A43BB207E1F70E9449000C94EE030C94E4
:100090000000CF93DF9300D01F92CDB7DEB70E9450
:1000A0002F030E94590280E895E20E949E0300E01F
:1000B0007DC081E00E940D0380E790E00E948003F4
:1000C00061E080E00E94930310E03FC00E9486023E
:1000D00002C00E9486028823E1F3833419F52FE7DA
:1000E00089EA93E0215080409040E1F700C0000091
:1000F00081E00E940D0360E080E00E94930380E7AE
:1001000090E00E94800361E080E00E9493032FEF63
:1001100080E792E0215080409040E1F700C000006D
:1001200010E012C0E1E0F0E0EC0FFD1FE10FF11D67
:1001300080830E945E032FE788E391E02150804096
:100140009040E1F700C000001F5F133008F4BECFFD
:1001500081E00E940D0360E080E00E9493038981AA
:100160008133B1F48A81823399F48B81833381F4B2
:1001700081E890E00E94800361E080E00E949303A8
:100180008DE890E00E94800381E30E94C80311C0C3
:1001900086E990E00E9480032FE789EA93E02150EE
:1001A00080409040E1F700C000000F5F033008F48A
:1001B00080CF033070F081E00E940D0360E080E0AA
:1001C0000E94930381EA90E00E94800382E30E94F0
:1001D000C803FFCF843008F072C0683008F06FC0E9
:1001E0004130A1F5813089F028F08230C9F08330A8
:1001F00011F108952AB381E090E002C0880F991FA1
:100200006A95E2F7822B8ABB089527B381E090E0DC
:1002100002C0880F991F6A95E2F7822B87BB089569
:1002200024B381E090E002C0880F991F6A95E2F73D
:10023000822B84BB089521B381E090E002C0880F37
:10024000991F6A95E2F7822B81BB0895411137C04F
:10025000813091F028F08230D9F0833029F108956F
:100260002AB381E090E002C0880F991F6A95E2F7F7
:10027000809582238ABB089527B381E090E002C075
:10028000880F991F6A95E2F78095822387BB0895AE
:1002900024B381E090E002C0880F991F6A95E2F7CD
:1002A0008095822384BB089521B381E090E002C051
:1002B000880F991F6A95E2F78095822381BB089584
:1002C000843008F072C0683008F06FC04130A1F58A
:1002D000813089F028F08230C9F0833011F108951F
:1002E0002BB381E090E002C0880F991F6A95E2F776
:1002F000822B8BBB089528B381E090E002C0880F69
:10030000991F6A95E2F7822B88BB089525B381E097
:1003100090E002C0880F991F6A95E2F7822B85BB97
:10032000089522B381E090E002C0880F991F6A957A
:10033000E2F7822B82BB0895411137C0813091F0E2
:1003400028F08230D9F0833029F108952BB381E071
:1003500090E002C0880F991F6A95E2F7809582238A
:100360008BBB089528B381E090E002C0880F991FED
:100370006A95E2F78095822388BB089525B381E0D2
:1003800090E002C0880F991F6A95E2F7809582235A
:1003900085BB089522B381E090E002C0880F991FC9
:1003A0006A95E2F78095822382BB0895843070F5C8
:1003B000683070F5813079F028F08230A9F0833010
:1003C000E1F028C089B390E002C0959587956A95C1
:1003D000E2F78170089586B390E002C09595879505
:1003E0006A95E2F78170089583B390E002C0959515
:1003F00087956A95E2F78170089580B390E002C016
:10040000959587956A95E2F78170089580E0089543
:1004100080E0089580E00895843078F4813041F0E0
:1004200028F0823039F0833039F008956ABB08959E
:1004300067BB089564BB089561BB0895843078F468
:10044000813041F028F0823039F0833039F008955E
:100450006BBB089568BB089565BB089562BB0895A2
:100460001F920F920FB60F9211242F933F934F9329
:100470005F936F937F938F939F93AF93BF93EF930C
:10048000FF93E091B200F091B300309709F0099525
:10049000FF91EF91BF91AF919F918F917F916F915C
:1004A0005F914F913F912F910F900FBE0F901F9032
:1004B000189540E060E082E00E94EA0040E061E0E0
:1004C00082E00E94EA0040E062E082E00E94EA00EE
:1004D00040E063E082E00E94EA0041E064E082E004
:1004E0000E94EA0041E065E082E00E94EA0041E00B
:1004F00066E082E00E94EA0041E067E082E00E945C
:10050000EA006FEF82E00E941E020895BF92CF9230
:10051000DF92EF92FF920F931F93CF93DF93CDB7AC
:10052000DEB768970FB6F894DEBF0FBECDBF80E18F
:10053000E0E6F0E0DE01119601900D928A95E1F778
:10054000198A81E08A8B82E08B8B83E08C8B84E03C
:100550008D8B85E08E8B86E08F8B87E0888FB12C2A
:1005600048C0E5E1F0E0EC0FFD1FE10FF11D41E0B7
:10057000608182E00E9460011F5F01C010E01430C2
:1005800080F3CB2CD12CE5E1F0E0EC0FFD1FEC0D5E
:10059000FD1D40E0608182E00E94600110E026C005
:1005A000E12EF12CE1E1F0E0EC0FFD1FEE0DFF1D5F
:1005B0000081602F82E00E94D601811116C00FC019
:1005C000EE0CFF1CEE0CFF1C81E090E08C0F9D1FD9
:1005D000E80EF91EF701EC0DFD1D80810EC0602FA5
:1005E00082E00E94D601882359F31F5F1430C0F2C5
:1005F000B39493E09B1510F680E068960FB6F894DC
:10060000DEBF0FBECDBFDF91CF911F910F91FF9045
:10061000EF90DF90CF90BF900895CF93C82F40E028
:1006200060E081E00E94600140E061E081E00E94C2
:1006300060016C2F80E00E941E0241E062E081E0D8
:100640000E94600189EF90E00197F1F700C000007F
:1006500040E062E081E00E946001CF91089541E0B6
:1006600060E081E00E94EA0041E061E081E00E94F8
:10067000EA0041E062E081E00E94EA006FEF80E082
:100680000E940C028FE097E20197F1F700C0000092
:1006900088E30E940D039DE09A95F1F78CE00E949B
:1006A0000D038DE08A95F1F781E00E940D0383EF41
:1006B00091E00197F1F700C000000895CF93C82F93
:1006C00041E060E081E00E94600140E061E081E0A3
:1006D0000E9460016C2F80E00E941E0241E062E0F7
:1006E00081E00E94600183EF91E00197F1F700C083
:1006F000000040E062E081E00E946001CF91089537
:100700000F931F93CF938C01C0E003C00E945E0340
:10071000CF5FF801EC0FF11D80818111F7CFCF91F0
:100720001F910F910895662329F0613011F4805CC8
:1007300001C080E080680E940D030895A0E0B0E051
:10074000880F991FAA1FBB1F880F991FAA1FBB1FC5
:100750009C01AD01220F331F441F551F220F331F71
:10076000441F551F60E072E18AE790E00E94CC03CD
:100770002150310930BD29B98AB188608AB98AB15E
:1007800080618AB98AB18B7F8AB986E880BD089575
:100790005D9BFECF8CB90895A1E21A2EAA1BBB1B4C
:1007A000FD010DC0AA1FBB1FEE1FFF1FA217B3073D
:1007B000E407F50720F0A21BB30BE40BF50B661F53
:1007C000771F881F991F1A9469F760957095809517
:1007D00090959B01AC01BD01CF010895F894FFCF26
:1007E0003738392F3435362A3132332D43303D2BCB
:1007F000456E74657220646F6F7220706173733A16
:1008000000646F6F72206F70656E65640057656C71
:10081000636F6D65210077726F6E6720706173730F
:10082000004E6F206D6F726520747269616C732168
:020830000000C6
:00000001FF
