:100000000C942A000C94E1010C9447000C944700D6
:100010000C9447000C9447000C9447000C94470044
:100020000C9447000C9447000C9447000C94470034
:100030000C9447000C9447000C9447000C94470024
:100040000C9447000C9447000C9447000C94470014
:100050000C94470011241FBECFE5D8E0DEBFCDBF12
:1000600010E0A0E6B0E0EAE7F5E002C005900D92EE
:10007000A036B107D9F720E0A0E6B0E001C01D929C
:10008000A336B207E1F70E944D000C94BB020C941A
:10009000000081E0809360000895CF93DF931F926A
:1000A000CDB7DEB740E060E080E00E94DC0041E0D8
:1000B00060E081E00E94DC000E94BC0080E895E2E4
:1000C0000E943C020E940A028AB38D7F8ABB81B3E0
:1000D000806281BB198281B38B7F81BB84B38160D5
:1000E00084BB85B38E7F85BB89E490E00E94DA01F2
:1000F0000E94C8010E94D2010E94D60110E3CE01E5
:1001000001960E946602811119811133F9F480E091
:100110000E94C6008E35914030F040E060E081E002
:100120000E94520105C041E060E081E00E9452015E
:1001300081E00E94C6008139914020F084EB0E944A
:100140003002DDCF80E00E943002D9CF8091600084
:100150008130A9F685B3816085BB8FEF91E12AE7F5
:10016000815090402040E1F700C0000085B38E7FB1
:1001700085BB10926000C3CF86B1806886B986B116
:10018000866086B987B1806487B90895877097B112
:10019000987F97B997B1892B87B986B1806486B962
:1001A000349BFECF34B185B190E0982F882726B1DB
:1001B000206126B9832B0895843008F072C068301E
:1001C00008F06FC04130A1F5813089F028F082300D
:1001D000C9F0833011F108952AB381E090E002C0A4
:1001E000880F991F6A95E2F7822B8ABB089527B37F
:1001F00081E090E002C0880F991F6A95E2F7822B98
:1002000087BB089524B381E090E002C0880F991F56
:100210006A95E2F7822B84BB089521B381E090E0D8
:1002200002C0880F991F6A95E2F7822B81BB08955F
:10023000411137C0813091F028F08230D9F08330FD
:1002400029F108952AB381E090E002C0880F991F38
:100250006A95E2F7809582238ABB089527B381E0EF
:1002600090E002C0880F991F6A95E2F7809582237B
:1002700087BB089524B381E090E002C0880F991FE6
:100280006A95E2F78095822384BB089521B381E0CB
:1002900090E002C0880F991F6A95E2F7809582234B
:1002A00081BB0895843008F072C0683008F06FC0D8
:1002B0004130A1F5813089F028F08230C9F08330D7
:1002C00011F108952BB381E090E002C0880F991FCF
:1002D0006A95E2F7822B8BBB089528B381E090E00A
:1002E00002C0880F991F6A95E2F7822B88BB089598
:1002F00025B381E090E002C0880F991F6A95E2F76C
:10030000822B85BB089522B381E090E002C0880F64
:10031000991F6A95E2F7822B82BB0895411137C07D
:10032000813091F028F08230D9F0833029F108959E
:100330002BB381E090E002C0880F991F6A95E2F725
:10034000809582238BBB089528B381E090E002C0A2
:10035000880F991F6A95E2F78095822388BB0895DC
:1003600025B381E090E002C0880F991F6A95E2F7FB
:100370008095822385BB089522B381E090E002C07E
:10038000880F991F6A95E2F78095822382BB0895B2
:1003900085B7816085BF85B7826085BF8AB7806475
:1003A0008ABF08958BB780648BBF08958FB780682C
:1003B0008FBF0895009721F09093620080936100B1
:1003C00008951F920F920FB60F9211242F933F930F
:1003D0004F935F936F937F938F939F93AF93BF934D
:1003E000EF93FF93E0916100F0916200309709F084
:1003F0000995FF91EF91BF91AF919F918F917F915F
:100400006F915F914F913F912F910F900FBE0F9081
:100410001F9018958FB58E7F8FBD8FB582608FBD71
:100420008EB588608EBD8EB580618EBD8FB58F7B99
:100430008FBD8FB580688FBD8FB58F7E8FBD8FB517
:1004400080628FBD8EB58E7F8EBD8EB582608EBD73
:100450008EB58B7F8EBD89E087BD83EC86BD089508
:100460002EE3829FC001112464EB70E00E947102B0
:1004700064541BBC6ABD0895A0E0B0E0880F991FCA
:10048000AA1FBB1F880F991FAA1FBB1F9C01AD018C
:10049000220F331F441F551F220F331F441F551FA8
:1004A00060E072E18AE790E00E9485022150310904
:1004B00030BD29B98AB188608AB98AB180618AB9A8
:1004C0008AB18B7F8AB986E880BD0895FC019BB113
:1004D000892F881F8827881F19F08CB1808381E0BD
:1004E000089597FB072E16F4009407D077FD09D0E6
:1004F0000E94A70207FC05D03EF4909581959F4F7E
:100500000895709561957F4F0895A1E21A2EAA1B58
:10051000BB1BFD010DC0AA1FBB1FEE1FFF1FA217B3
:10052000B307E407F50720F0A21BB30BE40BF50BB0
:10053000661F771F881F991F1A9469F76095709539
:10054000809590959B01AC01BD01CF010895AA1B38
:10055000BB1B51E107C0AA1FBB1FA617B70710F0AE
:10056000A61BB70B881F991F5A95A9F780959095E0
:0A057000BC01CD010895F894FFCFFF
:00000001FF
